:020000040800F2
:1000000018040020A1010008E3020008850200088E
:10001000E1020008E9010008710400080000000086
:1000200000000000000000000000000005030008C0
:10003000EB01000800000000E5020008C103000811
:10004000BB010008BB010008BB010008BB010008A0
:10005000BB010008BB010008BB010008BB01000890
:10006000BB010008BB010008BB010008BB01000880
:10007000BB010008BB010008BB010008BB01000870
:10008000BB010008BB010008BB010008BB01000860
:10009000BB010008BB010008BB010008BB01000850
:1000A000BB010008BB010008BB010008BB01000840
:1000B000BB010008BB010008BB010008BB01000830
:1000C000BB010008BB010008BB010008BB01000820
:1000D000BB010008BB010008BB010008BB01000810
:1000E000BB010008BB010008BB010008BB01000800
:1000F000BB010008BB010008BB010008BB010008F0
:10010000BB010008BB010008BB010008BB010008DF
:10011000BB010008BB010008BB010008BB010008CF
:10012000BB010008BB010008BB010008BB010008BF
:10013000BB010008BB010008BB010008BB010008AF
:10014000BB010008BB010008BB010008BB0100089F
:10015000BB010008BB010008BB010008BB0100088F
:10016000BB010008BB010008BB010008BB0100087F
:10017000BB010008BB010008BB010008BB0100086F
:10018000BB010008BB010008DFF810D000F01AF82E
:100190000048004791040008AFF3008018040020D5
:1001A0000648804706480047FEE7FEE7FEE7FEE711
:1001B000FEE7FEE7FEE7FEE7FEE7FEE715040008C0
:1001C00089010008064C074D06E0E06840F0010395
:1001D00094E8070098471034AC42F6D3FFF7D8FFF5
:1001E000C0040008E0040008FEE7704701B50348BA
:1001F0000099016001680029FCD108BD14000020AD
:100200002DE9F041002201274FF0030C07FA02F517
:100210000B682B40AB422CD1066853000CFA03F458
:10022000A64306600E79D0F800809E4046EA080694
:1002300006600E79012E01D0022E12D18668A643E7
:1002400086604E79D0F808809E4046EA08068660AF
:100250004668AE43466045688E799640B6B23543EF
:100260004560C568A543C560CC799C40C3681C4304
:10027000C460521C102AC9D3BDE8F0814183704785
:1002800001837047FEE700002DE9FC410121202099
:1002900000F02AF84024009401208DF80400002189
:1002A0008DF806108DF807008DF805100B4F694684
:1002B0003846FFF7A5FF8026009669463846FFF7C7
:1002C0009FFFA500009569463846FFF799FF034850
:1002D0001830048006800580BDE8FC8100140240CF
:1002E000FEE7704770470000054A002903D01168F7
:1002F000014311607047116881431160704700002D
:1003000030380240704700000CB500220192009284
:100310002749086840F4803008604FF4A04308681B
:1003200000F4003000900198401C0190009810B932
:1003300001989842F3D10868800302D5012000900B
:1003400000E000920098012831D11948403002683D
:1003500042F0805202601748026842F44042026054
:100360001348083002680260026842F400420260EA
:10037000026842F4A0520260021F0F4B13600A6829
:1003800042F080720A600A689201FCD50B4A40F282
:1003900005711160016821F003010160016841F0FD
:1003A000020101600168C1F381010229FAD10CBD8B
:1003B000003802400070004019544007003C0240E1
:1003C00003480168002902D00168491E0160704796
:1003D000140000200D484FF47A710068B0FBF1F072
:1003E000401EB0F1807F01D301200AE04FF0E021F0
:1003F0004861074AF02010700020886107200861DA
:100400000020002800D0FEE7704700000000002018
:1004100023ED00E010B51248016841F4700101605D
:100420001048016841F0010101600E4A00210832C4
:10043000116002680C4B1A400260031D0B4A1A60DF
:10044000026822F48022026006480C300160FFF747
:100450005BFF03494FF000608039086010BD000069
:1004600088ED00E000380240FFFFF6FE1030002467
:10047000FEE702E008C8121F08C1002AFAD170473F
:100480007047002001E001C1121F002AFBD1704714
:10049000FFF7FAFEFFF79EFF084D4FF4FA74402174
:1004A0002846FFF7EBFE2046FFF7A0FE4021284636
:1004B000FFF7E6FE2046FFF799FEF0E70014024042
:1004C000E00400080000002018000000720400088A
:1004D000F80400081800002000040000820400084E
:1004E000007A030A0000000000000000010203047B
:0804F0000607080900000000E6
:040000050800018965
:00000001FF
